{
  "contractName": "Staking",
  "abi": [
    {
      "constant": true,
      "inputs": [
        {
          "name": "",
          "type": "address"
        },
        {
          "name": "",
          "type": "uint256"
        }
      ],
      "name": "stakeHolders",
      "outputs": [
        {
          "name": "stake",
          "type": "uint256"
        },
        {
          "name": "reward",
          "type": "uint256"
        },
        {
          "name": "APY",
          "type": "uint256"
        },
        {
          "name": "lastRewardCalculated",
          "type": "uint256"
        }
      ],
      "payable": false,
      "stateMutability": "view",
      "type": "function"
    },
    {
      "constant": false,
      "inputs": [],
      "name": "renounceOwnership",
      "outputs": [],
      "payable": false,
      "stateMutability": "nonpayable",
      "type": "function"
    },
    {
      "constant": true,
      "inputs": [],
      "name": "owner",
      "outputs": [
        {
          "name": "",
          "type": "address"
        }
      ],
      "payable": false,
      "stateMutability": "view",
      "type": "function"
    },
    {
      "constant": true,
      "inputs": [],
      "name": "isOwner",
      "outputs": [
        {
          "name": "",
          "type": "bool"
        }
      ],
      "payable": false,
      "stateMutability": "view",
      "type": "function"
    },
    {
      "constant": true,
      "inputs": [
        {
          "name": "",
          "type": "uint256"
        }
      ],
      "name": "pools",
      "outputs": [
        {
          "name": "token",
          "type": "address"
        },
        {
          "name": "reward",
          "type": "address"
        },
        {
          "name": "APY",
          "type": "uint256"
        },
        {
          "name": "tvl",
          "type": "uint256"
        },
        {
          "name": "totalAllotedReward",
          "type": "uint256"
        },
        {
          "name": "totalClaimedReward",
          "type": "uint256"
        }
      ],
      "payable": false,
      "stateMutability": "view",
      "type": "function"
    },
    {
      "constant": false,
      "inputs": [
        {
          "name": "newOwner",
          "type": "address"
        }
      ],
      "name": "transferOwnership",
      "outputs": [],
      "payable": false,
      "stateMutability": "nonpayable",
      "type": "function"
    },
    {
      "anonymous": false,
      "inputs": [
        {
          "indexed": true,
          "name": "staker",
          "type": "address"
        },
        {
          "indexed": false,
          "name": "amount",
          "type": "uint256"
        },
        {
          "indexed": true,
          "name": "_poolId",
          "type": "uint256"
        },
        {
          "indexed": false,
          "name": "timestamp",
          "type": "uint256"
        }
      ],
      "name": "Staked",
      "type": "event"
    },
    {
      "anonymous": false,
      "inputs": [
        {
          "indexed": true,
          "name": "staker",
          "type": "address"
        },
        {
          "indexed": false,
          "name": "amount",
          "type": "uint256"
        },
        {
          "indexed": true,
          "name": "_poolId",
          "type": "uint256"
        },
        {
          "indexed": false,
          "name": "timestamp",
          "type": "uint256"
        }
      ],
      "name": "Unstaked",
      "type": "event"
    },
    {
      "anonymous": false,
      "inputs": [
        {
          "indexed": true,
          "name": "staker",
          "type": "address"
        },
        {
          "indexed": false,
          "name": "amount",
          "type": "uint256"
        },
        {
          "indexed": true,
          "name": "_poolId",
          "type": "uint256"
        },
        {
          "indexed": false,
          "name": "timestamp",
          "type": "uint256"
        }
      ],
      "name": "RewardClaimed",
      "type": "event"
    },
    {
      "anonymous": false,
      "inputs": [
        {
          "indexed": true,
          "name": "previousOwner",
          "type": "address"
        },
        {
          "indexed": true,
          "name": "newOwner",
          "type": "address"
        }
      ],
      "name": "OwnershipTransferred",
      "type": "event"
    },
    {
      "constant": false,
      "inputs": [
        {
          "name": "_token",
          "type": "address"
        },
        {
          "name": "_reward",
          "type": "address"
        },
        {
          "name": "_APY",
          "type": "uint256"
        }
      ],
      "name": "addPool",
      "outputs": [],
      "payable": false,
      "stateMutability": "nonpayable",
      "type": "function"
    },
    {
      "constant": true,
      "inputs": [],
      "name": "poolLength",
      "outputs": [
        {
          "name": "",
          "type": "uint256"
        }
      ],
      "payable": false,
      "stateMutability": "view",
      "type": "function"
    },
    {
      "constant": false,
      "inputs": [
        {
          "name": "_poolId",
          "type": "uint256"
        },
        {
          "name": "_APY",
          "type": "uint256"
        }
      ],
      "name": "updateAPY",
      "outputs": [],
      "payable": false,
      "stateMutability": "nonpayable",
      "type": "function"
    },
    {
      "constant": false,
      "inputs": [
        {
          "name": "_poolId",
          "type": "uint256"
        },
        {
          "name": "amount",
          "type": "uint256"
        }
      ],
      "name": "addRewardToPool",
      "outputs": [],
      "payable": false,
      "stateMutability": "nonpayable",
      "type": "function"
    },
    {
      "constant": false,
      "inputs": [],
      "name": "init",
      "outputs": [],
      "payable": false,
      "stateMutability": "nonpayable",
      "type": "function"
    },
    {
      "constant": true,
      "inputs": [
        {
          "name": "_poolId",
          "type": "uint256"
        },
        {
          "name": "_stakeHolder",
          "type": "address"
        }
      ],
      "name": "calculateReward",
      "outputs": [
        {
          "name": "reward",
          "type": "uint256"
        }
      ],
      "payable": false,
      "stateMutability": "view",
      "type": "function"
    },
    {
      "constant": false,
      "inputs": [
        {
          "name": "_poolId",
          "type": "uint256"
        },
        {
          "name": "amount",
          "type": "uint256"
        }
      ],
      "name": "stake",
      "outputs": [],
      "payable": false,
      "stateMutability": "nonpayable",
      "type": "function"
    },
    {
      "constant": false,
      "inputs": [
        {
          "name": "_poolId",
          "type": "uint256"
        }
      ],
      "name": "claimReward",
      "outputs": [],
      "payable": false,
      "stateMutability": "nonpayable",
      "type": "function"
    },
    {
      "constant": false,
      "inputs": [
        {
          "name": "_poolId",
          "type": "uint256"
        },
        {
          "name": "amount",
          "type": "uint256"
        }
      ],
      "name": "unstake",
      "outputs": [],
      "payable": false,
      "stateMutability": "nonpayable",
      "type": "function"
    },
    {
      "constant": true,
      "inputs": [
        {
          "name": "_poolId",
          "type": "uint256"
        }
      ],
      "name": "getStakers",
      "outputs": [
        {
          "name": "",
          "type": "address[]"
        }
      ],
      "payable": false,
      "stateMutability": "view",
      "type": "function"
    },
    {
      "constant": true,
      "inputs": [
        {
          "name": "_poolId",
          "type": "uint256"
        }
      ],
      "name": "totalReward",
      "outputs": [
        {
          "name": "_totalReward",
          "type": "uint256"
        }
      ],
      "payable": false,
      "stateMutability": "view",
      "type": "function"
    },
    {
      "constant": true,
      "inputs": [
        {
          "name": "_poolId",
          "type": "uint256"
        }
      ],
      "name": "haveSuffecientFundsForReward",
      "outputs": [
        {
          "name": "",
          "type": "bool"
        }
      ],
      "payable": false,
      "stateMutability": "view",
      "type": "function"
    }
  ],
  "bytecode": "0x6080604052612ed4806100136000396000f3fe608060405234801561001057600080fd5b5060043610610133576000357c0100000000000000000000000000000000000000000000000000000000900480639e2c8a5b116100bf578063ae169a501161008e578063ae169a5014610304578063cf5badc614610320578063e1c7392a14610350578063f2fde38b1461035a578063f8ce1f311461037657610133565b80639e2c8a5b14610267578063a18f07a014610283578063aa9a196f146102b3578063ac4afa38146102cf57610133565b806372366d981161010657806372366d98146101c35780637b0472f0146101f35780637e29d6c21461020f5780638da5cb5b1461022b5780638f32d59b1461024957610133565b8063081e3eda1461013857806323a6f46e146101565780633987ad4a14610186578063715018a6146101b9575b600080fd5b610140610392565b60405161014d9190612cb5565b60405180910390f35b610170600480360361016b919081019061255a565b61039f565b60405161017d9190612cb5565b60405180910390f35b6101a0600480360361019b91908101906124f5565b6104e0565b6040516101b09493929190612cf9565b60405180910390f35b6101c161051d565b005b6101dd60048036036101d8919081019061255a565b610623565b6040516101ea9190612b0d565b60405180910390f35b61020d600480360361020891908101906125e8565b6106c7565b005b610229600480360361022491908101906124a6565b610ba2565b005b610233610e73565b6040516102409190612a08565b60405180910390f35b610251610e9c565b60405161025e9190612b2f565b60405180910390f35b610281600480360361027c91908101906125e8565b610efa565b005b61029d600480360361029891908101906125ac565b611352565b6040516102aa9190612cb5565b60405180910390f35b6102cd60048036036102c891908101906125e8565b6113fa565b005b6102e960048036036102e4919081019061255a565b6114b1565b6040516102fb96959493929190612aac565b60405180910390f35b61031e6004803603610319919081019061255a565b61153a565b005b61033a6004803603610335919081019061255a565b611ac7565b6040516103479190612b2f565b60405180910390f35b610358611afa565b005b610374600480360361036f919081019061247d565b611b7a565b005b610390600480360361038b91908101906125e8565b611bcd565b005b6000600580549050905090565b6000806000905060008090505b60046000858152602001908152602001600020600001805490508110156104d657600360006004600087815260200190815260200160002060000183815481106103f257fe5b9060005260206000200160009054906101000a900473ffffffffffffffffffffffffffffffffffffffff1673ffffffffffffffffffffffffffffffffffffffff1673ffffffffffffffffffffffffffffffffffffffff168152602001908152602001600020600085815260200190815260200160002060010154820191506104c58460046000878152602001908152602001600020600001838154811061049557fe5b9060005260206000200160009054906101000a900473ffffffffffffffffffffffffffffffffffffffff16611e66565b8201915080806001019150506103ac565b5080915050919050565b6003602052816000526040600020602052806000526040600020600091509150508060000154908060010154908060020154908060030154905084565b610525610e9c565b610564576040517f08c379a000000000000000000000000000000000000000000000000000000000815260040161055b90612c2c565b60405180910390fd5b600073ffffffffffffffffffffffffffffffffffffffff166000809054906101000a900473ffffffffffffffffffffffffffffffffffffffff1673ffffffffffffffffffffffffffffffffffffffff167f8be0079c531659141344cd1fd0a4f28419497f9722a3daafe3b4186f6b6457e060405160405180910390a360008060006101000a81548173ffffffffffffffffffffffffffffffffffffffff021916908373ffffffffffffffffffffffffffffffffffffffff160217905550565b6060600460008381526020019081526020016000206000018054806020026020016040519081016040528092919081815260200182805480156106bb57602002820191906000526020600020905b8160009054906101000a900473ffffffffffffffffffffffffffffffffffffffff1673ffffffffffffffffffffffffffffffffffffffff1681526020019060010190808311610671575b50505050509050919050565b81600580549050811061070f576040517f08c379a000000000000000000000000000000000000000000000000000000000815260040161070690612bcc565b60405180910390fd5b60006005848154811061071e57fe5b906000526020600020906006020160000160009054906101000a900473ffffffffffffffffffffffffffffffffffffffff169050828173ffffffffffffffffffffffffffffffffffffffff1663dd62ed3e33306040518363ffffffff167c01000000000000000000000000000000000000000000000000000000000281526004016107aa929190612a23565b60206040518083038186803b1580156107c257600080fd5b505afa1580156107d6573d6000803e3d6000fd5b505050506040513d601f19601f820116820180604052506107fa9190810190612583565b101561083b576040517f08c379a000000000000000000000000000000000000000000000000000000000815260040161083290612bec565b60405180910390fd5b8073ffffffffffffffffffffffffffffffffffffffff166323b872dd3330866040518463ffffffff167c010000000000000000000000000000000000000000000000000000000002815260040161089493929190612a4c565b602060405180830381600087803b1580156108ae57600080fd5b505af11580156108c2573d6000803e3d6000fd5b505050506040513d601f19601f820116820180604052506108e69190810190612531565b5060006108f38533611e66565b905083600360003373ffffffffffffffffffffffffffffffffffffffff1673ffffffffffffffffffffffffffffffffffffffff16815260200190815260200160002060008781526020019081526020016000206000016000828254019250508190555080600360003373ffffffffffffffffffffffffffffffffffffffff1673ffffffffffffffffffffffffffffffffffffffff16815260200190815260200160002060008781526020019081526020016000206001016000828254019250508190555042600360003373ffffffffffffffffffffffffffffffffffffffff1673ffffffffffffffffffffffffffffffffffffffff16815260200190815260200160002060008781526020019081526020016000206003018190555060058581548110610a1c57fe5b906000526020600020906006020160020154600360003373ffffffffffffffffffffffffffffffffffffffff1673ffffffffffffffffffffffffffffffffffffffff1681526020019081526020016000206000878152602001908152602001600020600201819055508360058681548110610a9357fe5b9060005260206000209060060201600301600082825401925050819055506004600086815260200190815260200160002073__AddressArrayLib_______________________6368756ab29091336040518363ffffffff167c0100000000000000000000000000000000000000000000000000000000028152600401610b1a929190612c8c565b60006040518083038186803b158015610b3257600080fd5b505af4158015610b46573d6000803e3d6000fd5b50505050843373ffffffffffffffffffffffffffffffffffffffff167fb4caaf29adda3eefee3ad552a8e85058589bf834c7466cae4ee58787f70589ed8642604051610b93929190612cd0565b60405180910390a35050505050565b610baa610e9c565b610be9576040517f08c379a0000000000000000000000000000000000000000000000000000000008152600401610be090612c2c565b60405180910390fd5b60008090505b600580549050811015610d2b578373ffffffffffffffffffffffffffffffffffffffff1660058281548110610c2057fe5b906000526020600020906006020160000160009054906101000a900473ffffffffffffffffffffffffffffffffffffffff1673ffffffffffffffffffffffffffffffffffffffff16148015610cde57508273ffffffffffffffffffffffffffffffffffffffff1660058281548110610c9457fe5b906000526020600020906006020160010160009054906101000a900473ffffffffffffffffffffffffffffffffffffffff1673ffffffffffffffffffffffffffffffffffffffff16145b15610d1e576040517f08c379a0000000000000000000000000000000000000000000000000000000008152600401610d1590612b8c565b60405180910390fd5b8080600101915050610bef565b5060056040518060c001604052808573ffffffffffffffffffffffffffffffffffffffff1681526020018473ffffffffffffffffffffffffffffffffffffffff168152602001838152602001600081526020016000815260200160008152509080600181540180825580915050906001820390600052602060002090600602016000909192909190915060008201518160000160006101000a81548173ffffffffffffffffffffffffffffffffffffffff021916908373ffffffffffffffffffffffffffffffffffffffff16021790555060208201518160010160006101000a81548173ffffffffffffffffffffffffffffffffffffffff021916908373ffffffffffffffffffffffffffffffffffffffff16021790555060408201518160020155606082015181600301556080820151816004015560a08201518160050155505050505050565b60008060009054906101000a900473ffffffffffffffffffffffffffffffffffffffff16905090565b60008060009054906101000a900473ffffffffffffffffffffffffffffffffffffffff1673ffffffffffffffffffffffffffffffffffffffff16610ede611f93565b73ffffffffffffffffffffffffffffffffffffffff1614905090565b816005805490508110610f42576040517f08c379a0000000000000000000000000000000000000000000000000000000008152600401610f3990612bcc565b60405180910390fd5b81600360003373ffffffffffffffffffffffffffffffffffffffff1673ffffffffffffffffffffffffffffffffffffffff1681526020019081526020016000206000858152602001908152602001600020600001541015610fd8576040517f08c379a0000000000000000000000000000000000000000000000000000000008152600401610fcf90612b6c565b60405180910390fd5b6000610fe48433611e66565b905082600360003373ffffffffffffffffffffffffffffffffffffffff1673ffffffffffffffffffffffffffffffffffffffff16815260200190815260200160002060008681526020019081526020016000206000016000828254039250508190555080600360003373ffffffffffffffffffffffffffffffffffffffff1673ffffffffffffffffffffffffffffffffffffffff16815260200190815260200160002060008681526020019081526020016000206001016000828254019250508190555042600360003373ffffffffffffffffffffffffffffffffffffffff1673ffffffffffffffffffffffffffffffffffffffff168152602001908152602001600020600086815260200190815260200160002060030181905550826005858154811061110e57fe5b9060005260206000209060060201600301600082825403925050819055506000600360003373ffffffffffffffffffffffffffffffffffffffff1673ffffffffffffffffffffffffffffffffffffffff1681526020019081526020016000206000868152602001908152602001600020600001541480156111e257506000600360003373ffffffffffffffffffffffffffffffffffffffff1673ffffffffffffffffffffffffffffffffffffffff168152602001908152602001600020600086815260200190815260200160002060010154145b1561120d5761120c3360046000878152602001908152602001600020611f9b90919063ffffffff16565b5b60006005858154811061121c57fe5b906000526020600020906006020160000160009054906101000a900473ffffffffffffffffffffffffffffffffffffffff1690508073ffffffffffffffffffffffffffffffffffffffff1663a9059cbb33866040518363ffffffff167c01000000000000000000000000000000000000000000000000000000000281526004016112a7929190612a83565b602060405180830381600087803b1580156112c157600080fd5b505af11580156112d5573d6000803e3d6000fd5b505050506040513d601f19601f820116820180604052506112f99190810190612531565b50843373ffffffffffffffffffffffffffffffffffffffff167f204fccf0d92ed8d48f204adb39b2e81e92bad0dedb93f5716ca9478cfb57de008642604051611343929190612cd0565b60405180910390a35050505050565b600061135c612405565b600360008473ffffffffffffffffffffffffffffffffffffffff1673ffffffffffffffffffffffffffffffffffffffff168152602001908152602001600020600085815260200190815260200160002060405180608001604052908160008201548152602001600182015481526020016002820154815260200160038201548152505090506113eb8484611e66565b81602001510191505092915050565b611402610e9c565b611441576040517f08c379a000000000000000000000000000000000000000000000000000000000815260040161143890612c2c565b60405180910390fd5b816005805490508110611489576040517f08c379a000000000000000000000000000000000000000000000000000000000815260040161148090612bcc565b60405180910390fd5b816005848154811061149757fe5b906000526020600020906006020160020181905550505050565b600581815481106114be57fe5b90600052602060002090600602016000915090508060000160009054906101000a900473ffffffffffffffffffffffffffffffffffffffff16908060010160009054906101000a900473ffffffffffffffffffffffffffffffffffffffff16908060020154908060030154908060040154908060050154905086565b806005805490508110611582576040517f08c379a000000000000000000000000000000000000000000000000000000000815260040161157990612bcc565b60405180910390fd5b600061158e8333611e66565b905080600360003373ffffffffffffffffffffffffffffffffffffffff1673ffffffffffffffffffffffffffffffffffffffff16815260200190815260200160002060008581526020019081526020016000206001015401600584815481106115f357fe5b90600052602060002090600602016004015411611645576040517f08c379a000000000000000000000000000000000000000000000000000000000815260040161163c90612c4c565b60405180910390fd5b60006005848154811061165457fe5b906000526020600020906006020160000160009054906101000a900473ffffffffffffffffffffffffffffffffffffffff1690508073ffffffffffffffffffffffffffffffffffffffff1663a9059cbb3384600360003373ffffffffffffffffffffffffffffffffffffffff1673ffffffffffffffffffffffffffffffffffffffff168152602001908152602001600020600089815260200190815260200160002060010154016040518363ffffffff167c0100000000000000000000000000000000000000000000000000000000028152600401611734929190612a83565b602060405180830381600087803b15801561174e57600080fd5b505af1158015611762573d6000803e3d6000fd5b505050506040513d601f19601f820116820180604052506117869190810190612531565b5081600360003373ffffffffffffffffffffffffffffffffffffffff1673ffffffffffffffffffffffffffffffffffffffff16815260200190815260200160002060008681526020019081526020016000206001015401600585815481106117ea57fe5b90600052602060002090600602016004016000828254039250508190555081600360003373ffffffffffffffffffffffffffffffffffffffff1673ffffffffffffffffffffffffffffffffffffffff168152602001908152602001600020600086815260200190815260200160002060010154016005858154811061186b57fe5b9060005260206000209060060201600501600082825401925050819055506000600360003373ffffffffffffffffffffffffffffffffffffffff1673ffffffffffffffffffffffffffffffffffffffff16815260200190815260200160002060008681526020019081526020016000206001018190555042600360003373ffffffffffffffffffffffffffffffffffffffff1673ffffffffffffffffffffffffffffffffffffffff1681526020019081526020016000206000868152602001908152602001600020600301819055506000600360003373ffffffffffffffffffffffffffffffffffffffff1673ffffffffffffffffffffffffffffffffffffffff1681526020019081526020016000206000868152602001908152602001600020600001541480156119f057506000600360003373ffffffffffffffffffffffffffffffffffffffff1673ffffffffffffffffffffffffffffffffffffffff168152602001908152602001600020600086815260200190815260200160002060010154145b15611a1b57611a1a3360046000878152602001908152602001600020611f9b90919063ffffffff16565b5b833373ffffffffffffffffffffffffffffffffffffffff167f812be816db82c66cd18ca8457005cd84689642d8ac4d38599cc6af444a2dc72a84600360003373ffffffffffffffffffffffffffffffffffffffff1673ffffffffffffffffffffffffffffffffffffffff1681526020019081526020016000206000898152602001908152602001600020600101540142604051611ab9929190612cd0565b60405180910390a350505050565b6000611ad28261039f565b60058381548110611adf57fe5b90600052602060002090600602016004015410159050919050565b600260009054906101000a900460ff1615611b4a576040517f08c379a0000000000000000000000000000000000000000000000000000000008152600401611b4190612c6c565b60405180910390fd5b611b5261206c565b6301e133806001819055506001600260006101000a81548160ff021916908315150217905550565b611b82610e9c565b611bc1576040517f08c379a0000000000000000000000000000000000000000000000000000000008152600401611bb890612c2c565b60405180910390fd5b611bca81612117565b50565b611bd5610e9c565b611c14576040517f08c379a0000000000000000000000000000000000000000000000000000000008152600401611c0b90612c2c565b60405180910390fd5b816005805490508110611c5c576040517f08c379a0000000000000000000000000000000000000000000000000000000008152600401611c5390612bcc565b60405180910390fd5b600060058481548110611c6b57fe5b906000526020600020906006020160010160009054906101000a900473ffffffffffffffffffffffffffffffffffffffff169050828173ffffffffffffffffffffffffffffffffffffffff1663dd62ed3e33306040518363ffffffff167c0100000000000000000000000000000000000000000000000000000000028152600401611cf7929190612a23565b60206040518083038186803b158015611d0f57600080fd5b505afa158015611d23573d6000803e3d6000fd5b505050506040513d601f19601f82011682018060405250611d479190810190612583565b1015611d88576040517f08c379a0000000000000000000000000000000000000000000000000000000008152600401611d7f90612bec565b60405180910390fd5b8073ffffffffffffffffffffffffffffffffffffffff166323b872dd3330866040518463ffffffff167c0100000000000000000000000000000000000000000000000000000000028152600401611de193929190612a4c565b602060405180830381600087803b158015611dfb57600080fd5b505af1158015611e0f573d6000803e3d6000fd5b505050506040513d601f19601f82011682018060405250611e339190810190612531565b508260058581548110611e4257fe5b90600052602060002090600602016004016000828254019250508190555050505050565b6000611e70612405565b600360008473ffffffffffffffffffffffffffffffffffffffff1673ffffffffffffffffffffffffffffffffffffffff16815260200190815260200160002060008581526020019081526020016000206040518060800160405290816000820154815260200160018201548152602001600282015481526020016003820154815250509050600081600001511115611f8757611f80611f2f6103e8611f21606460015461224590919063ffffffff16565b61224590919063ffffffff16565b611f72611f498460600151426122b590919063ffffffff16565b611f648560400151866000015161224590919063ffffffff16565b61224590919063ffffffff16565b6122ff90919063ffffffff16565b9150611f8c565b600091505b5092915050565b600033905090565b60008090505b8260000180549050811015612067578173ffffffffffffffffffffffffffffffffffffffff16836000018281548110611fd657fe5b9060005260206000200160009054906101000a900473ffffffffffffffffffffffffffffffffffffffff1673ffffffffffffffffffffffffffffffffffffffff16141561205a5782600001818154811061202c57fe5b9060005260206000200160006101000a81549073ffffffffffffffffffffffffffffffffffffffff02191690555b8080600101915050611fa1565b505050565b612074611f93565b6000806101000a81548173ffffffffffffffffffffffffffffffffffffffff021916908373ffffffffffffffffffffffffffffffffffffffff1602179055506120bb611f93565b73ffffffffffffffffffffffffffffffffffffffff16600073ffffffffffffffffffffffffffffffffffffffff167f8be0079c531659141344cd1fd0a4f28419497f9722a3daafe3b4186f6b6457e060405160405180910390a3565b600073ffffffffffffffffffffffffffffffffffffffff168173ffffffffffffffffffffffffffffffffffffffff161415612187576040517f08c379a000000000000000000000000000000000000000000000000000000000815260040161217e90612bac565b60405180910390fd5b8073ffffffffffffffffffffffffffffffffffffffff166000809054906101000a900473ffffffffffffffffffffffffffffffffffffffff1673ffffffffffffffffffffffffffffffffffffffff167f8be0079c531659141344cd1fd0a4f28419497f9722a3daafe3b4186f6b6457e060405160405180910390a3806000806101000a81548173ffffffffffffffffffffffffffffffffffffffff021916908373ffffffffffffffffffffffffffffffffffffffff16021790555050565b60008083141561225857600090506122af565b600082840290508284828161226957fe5b04146122aa576040517f08c379a00000000000000000000000000000000000000000000000000000000081526004016122a190612c0c565b60405180910390fd5b809150505b92915050565b60006122f783836040518060400160405280601e81526020017f536166654d6174683a207375627472616374696f6e206f766572666c6f770000815250612349565b905092915050565b600061234183836040518060400160405280601a81526020017f536166654d6174683a206469766973696f6e206279207a65726f0000000000008152506123a4565b905092915050565b6000838311158290612391576040517f08c379a00000000000000000000000000000000000000000000000000000000081526004016123889190612b4a565b60405180910390fd5b5060008385039050809150509392505050565b600080831182906123eb576040517f08c379a00000000000000000000000000000000000000000000000000000000081526004016123e29190612b4a565b60405180910390fd5b5060008385816123f757fe5b049050809150509392505050565b6040518060800160405280600081526020016000815260200160008152602001600081525090565b60006124398235612dd8565b905092915050565b600061244d8251612dea565b905092915050565b60006124618235612e16565b905092915050565b60006124758251612e16565b905092915050565b60006020828403121561248f57600080fd5b600061249d8482850161242d565b91505092915050565b6000806000606084860312156124bb57600080fd5b60006124c98682870161242d565b93505060206124da8682870161242d565b92505060406124eb86828701612455565b9150509250925092565b6000806040838503121561250857600080fd5b60006125168582860161242d565b925050602061252785828601612455565b9150509250929050565b60006020828403121561254357600080fd5b600061255184828501612441565b91505092915050565b60006020828403121561256c57600080fd5b600061257a84828501612455565b91505092915050565b60006020828403121561259557600080fd5b60006125a384828501612469565b91505092915050565b600080604083850312156125bf57600080fd5b60006125cd85828601612455565b92505060206125de8582860161242d565b9150509250929050565b600080604083850312156125fb57600080fd5b600061260985828601612455565b925050602061261a85828601612455565b9150509250929050565b6000612630838361265a565b60208301905092915050565b61264581612e20565b82525050565b61265481612e20565b82525050565b61266381612d90565b82525050565b61267281612d90565b82525050565b600061268382612d4b565b61268d8185612d6e565b935061269883612d3e565b60005b828110156126c6576126ae868351612624565b95506126b982612d61565b915060018101905061269b565b50849250505092915050565b6126db81612da2565b82525050565b60006126ec82612d56565b6126f68185612d7f565b9350612706818560208601612e56565b61270f81612e89565b840191505092915050565b6000612727603083612d7f565b91507f5374616b696e673a20596f7520646f6e2774206861766520656e6f756768207560008301527f6e7374616b65626c6520616d6f756e74000000000000000000000000000000006020830152604082019050919050565b600061278d601383612d7f565b91507f506f6f6c20616c726561647920657869737473000000000000000000000000006000830152602082019050919050565b60006127cd602683612d7f565b91507f4f776e61626c653a206e6577206f776e657220697320746865207a65726f206160008301527f64647265737300000000000000000000000000000000000000000000000000006020830152604082019050919050565b6000612833601c83612d7f565b91507f5374616b696e673a20506f6f6c20646f65736e277420657869737473000000006000830152602082019050919050565b6000612873601c83612d7f565b91507f5374616b696e673a204d75737420616c6c6f77205370656e64696e67000000006000830152602082019050919050565b60006128b3602183612d7f565b91507f536166654d6174683a206d756c7469706c69636174696f6e206f766572666c6f60008301527f77000000000000000000000000000000000000000000000000000000000000006020830152604082019050919050565b6000612919602083612d7f565b91507f4f776e61626c653a2063616c6c6572206973206e6f7420746865206f776e65726000830152602082019050919050565b6000612959603583612d7f565b91507f5374616b696e673a20496e73756666696369656e742072657761726420616c6c60008301527f6f77616e63652066726f6d207468652041646d696e00000000000000000000006020830152604082019050919050565b60006129bf601383612d7f565b91507f416c726561647920696e6974696c697a65642e000000000000000000000000006000830152602082019050919050565b8082525050565b612a0281612dce565b82525050565b6000602082019050612a1d6000830184612669565b92915050565b6000604082019050612a38600083018561263c565b612a456020830184612669565b9392505050565b6000606082019050612a61600083018661263c565b612a6e6020830185612669565b612a7b60408301846129f9565b949350505050565b6000604082019050612a98600083018561263c565b612aa560208301846129f9565b9392505050565b600060c082019050612ac16000830189612669565b612ace6020830188612669565b612adb60408301876129f9565b612ae860608301866129f9565b612af560808301856129f9565b612b0260a08301846129f9565b979650505050505050565b60006020820190508181036000830152612b278184612678565b905092915050565b6000602082019050612b4460008301846126d2565b92915050565b60006020820190508181036000830152612b6481846126e1565b905092915050565b60006020820190508181036000830152612b858161271a565b9050919050565b60006020820190508181036000830152612ba581612780565b9050919050565b60006020820190508181036000830152612bc5816127c0565b9050919050565b60006020820190508181036000830152612be581612826565b9050919050565b60006020820190508181036000830152612c0581612866565b9050919050565b60006020820190508181036000830152612c25816128a6565b9050919050565b60006020820190508181036000830152612c458161290c565b9050919050565b60006020820190508181036000830152612c658161294c565b9050919050565b60006020820190508181036000830152612c85816129b2565b9050919050565b6000604082019050612ca160008301856129f2565b612cae602083018461264b565b9392505050565b6000602082019050612cca60008301846129f9565b92915050565b6000604082019050612ce560008301856129f9565b612cf260208301846129f9565b9392505050565b6000608082019050612d0e60008301876129f9565b612d1b60208301866129f9565b612d2860408301856129f9565b612d3560608301846129f9565b95945050505050565b6000602082019050919050565b600081519050919050565b600081519050919050565b6000602082019050919050565b600082825260208201905092915050565b600082825260208201905092915050565b6000612d9b82612dae565b9050919050565b60008115159050919050565b600073ffffffffffffffffffffffffffffffffffffffff82169050919050565b6000819050919050565b6000612de382612df6565b9050919050565b60008115159050919050565b600073ffffffffffffffffffffffffffffffffffffffff82169050919050565b6000819050919050565b6000612e2b82612e32565b9050919050565b6000612e3d82612e44565b9050919050565b6000612e4f82612dae565b9050919050565b60005b83811015612e74578082015181840152602081019050612e59565b83811115612e83576000848401525b50505050565b6000601f19601f830116905091905056fea265627a7a7230582041b2ff34d07e3776bfd3ac91de964581b6db7680c42e3e5905deb620184bc7056c6578706572696d656e74616cf50037",
  "source": "// SPDX-License-Identifier: MIT\n\npragma solidity 0.5.6;\npragma experimental ABIEncoderV2;\n\n/**\n * @dev Wrappers over Solidity's arithmetic operations with added overflow\n * checks.\n *\n * Arithmetic operations in Solidity wrap on overflow. This can easily result\n * in bugs, because programmers usually assume that an overflow raises an\n * error, which is the standard behavior in high level programming languages.\n * `SafeMath` restores this intuition by reverting the transaction when an\n * operation overflows.\n *\n * Using this library instead of the unchecked operations eliminates an entire\n * class of bugs, so it's recommended to use it always.\n */\nlibrary SafeMath {\n    /**\n     * @dev Returns the addition of two unsigned integers, reverting on\n     * overflow.\n     *\n     * Counterpart to Solidity's `+` operator.\n     *\n     * Requirements:\n     * - Addition cannot overflow.\n     */\n    function add(uint256 a, uint256 b) internal pure returns (uint256) {\n        uint256 c = a + b;\n        require(c >= a, \"SafeMath: addition overflow\");\n\n        return c;\n    }\n\n    /**\n     * @dev Returns the subtraction of two unsigned integers, reverting on\n     * overflow (when the result is negative).\n     *\n     * Counterpart to Solidity's `-` operator.\n     *\n     * Requirements:\n     * - Subtraction cannot overflow.\n     */\n    function sub(uint256 a, uint256 b) internal pure returns (uint256) {\n        return sub(a, b, \"SafeMath: subtraction overflow\");\n    }\n\n    /**\n     * @dev Returns the subtraction of two unsigned integers, reverting with custom message on\n     * overflow (when the result is negative).\n     *\n     * Counterpart to Solidity's `-` operator.\n     *\n     * Requirements:\n     * - Subtraction cannot overflow.\n     *\n     * _Available since v2.4.0._\n     */\n    function sub(uint256 a, uint256 b, string memory errorMessage) internal pure returns (uint256) {\n        require(b <= a, errorMessage);\n        uint256 c = a - b;\n\n        return c;\n    }\n\n    /**\n     * @dev Returns the multiplication of two unsigned integers, reverting on\n     * overflow.\n     *\n     * Counterpart to Solidity's `*` operator.\n     *\n     * Requirements:\n     * - Multiplication cannot overflow.\n     */\n    function mul(uint256 a, uint256 b) internal pure returns (uint256) {\n        // Gas optimization: this is cheaper than requiring 'a' not being zero, but the\n        // benefit is lost if 'b' is also tested.\n        // See: https://github.com/OpenZeppelin/openzeppelin-contracts/pull/522\n        if (a == 0) {\n            return 0;\n        }\n\n        uint256 c = a * b;\n        require(c / a == b, \"SafeMath: multiplication overflow\");\n\n        return c;\n    }\n\n    /**\n     * @dev Returns the integer division of two unsigned integers. Reverts on\n     * division by zero. The result is rounded towards zero.\n     *\n     * Counterpart to Solidity's `/` operator. Note: this function uses a\n     * `revert` opcode (which leaves remaining gas untouched) while Solidity\n     * uses an invalid opcode to revert (consuming all remaining gas).\n     *\n     * Requirements:\n     * - The divisor cannot be zero.\n     */\n    function div(uint256 a, uint256 b) internal pure returns (uint256) {\n        return div(a, b, \"SafeMath: division by zero\");\n    }\n\n    /**\n     * @dev Returns the integer division of two unsigned integers. Reverts with custom message on\n     * division by zero. The result is rounded towards zero.\n     *\n     * Counterpart to Solidity's `/` operator. Note: this function uses a\n     * `revert` opcode (which leaves remaining gas untouched) while Solidity\n     * uses an invalid opcode to revert (consuming all remaining gas).\n     *\n     * Requirements:\n     * - The divisor cannot be zero.\n     *\n     * _Available since v2.4.0._\n     */\n    function div(uint256 a, uint256 b, string memory errorMessage) internal pure returns (uint256) {\n        // Solidity only automatically asserts when dividing by 0\n        require(b > 0, errorMessage);\n        uint256 c = a / b;\n        // assert(a == b * c + a % b); // There is no case in which this doesn't hold\n\n        return c;\n    }\n\n    /**\n     * @dev Returns the remainder of dividing two unsigned integers. (unsigned integer modulo),\n     * Reverts when dividing by zero.\n     *\n     * Counterpart to Solidity's `%` operator. This function uses a `revert`\n     * opcode (which leaves remaining gas untouched) while Solidity uses an\n     * invalid opcode to revert (consuming all remaining gas).\n     *\n     * Requirements:\n     * - The divisor cannot be zero.\n     */\n    function mod(uint256 a, uint256 b) internal pure returns (uint256) {\n        return mod(a, b, \"SafeMath: modulo by zero\");\n    }\n\n    /**\n     * @dev Returns the remainder of dividing two unsigned integers. (unsigned integer modulo),\n     * Reverts with custom message when dividing by zero.\n     *\n     * Counterpart to Solidity's `%` operator. This function uses a `revert`\n     * opcode (which leaves remaining gas untouched) while Solidity uses an\n     * invalid opcode to revert (consuming all remaining gas).\n     *\n     * Requirements:\n     * - The divisor cannot be zero.\n     *\n     * _Available since v2.4.0._\n     */\n    function mod(uint256 a, uint256 b, string memory errorMessage) internal pure returns (uint256) {\n        require(b != 0, errorMessage);\n        return a % b;\n    }\n}\n\n// File: @openzeppelin/contracts/GSN/Context.sol\n\n\n/*\n * @dev Provides information about the current execution context, including the\n * sender of the transaction and its data. While these are generally available\n * via msg.sender and msg.data, they should not be accessed in such a direct\n * manner, since when dealing with GSN meta-transactions the account sending and\n * paying for execution may not be the actual sender (as far as an application\n * is concerned).\n *\n * This contract is only required for intermediate, library-like contracts.\n */\ncontract Context {\n    // Empty internal constructor, to prevent people from mistakenly deploying\n    // an instance of this contract, which should be used via inheritance.\n    constructor () internal { }\n    // solhint-disable-previous-line no-empty-blocks\n\n    function _msgSender() internal view returns (address payable) {\n        return msg.sender;\n    }\n\n    function _msgData() internal view returns (bytes memory) {\n        this; // silence state mutability warning without generating bytecode - see https://github.com/ethereum/solidity/issues/2691\n        return msg.data;\n    }\n}\n\n// File: @openzeppelin/contracts/ownership/Ownable.sol\n\n/**\n * @dev Contract module which provides a basic access control mechanism, where\n * there is an account (an owner) that can be granted exclusive access to\n * specific functions.\n *\n * This module is used through inheritance. It will make available the modifier\n * `onlyOwner`, which can be applied to your functions to restrict their use to\n * the owner.\n */\ncontract Ownable is Context {\n    address private _owner;\n\n    event OwnershipTransferred(address indexed previousOwner, address indexed newOwner);\n\n\n    function initOwner()  internal {\n        _owner = _msgSender();\n        emit OwnershipTransferred(address(0), _msgSender());\n    }\n\n    /**\n     * @dev Returns the address of the current owner.\n     */\n    function owner() public view returns (address) {\n        return _owner;\n    }\n\n    /**\n     * @dev Throws if called by any account other than the owner.\n     */\n    modifier onlyOwner() {\n        require(isOwner(), \"Ownable: caller is not the owner\");\n        _;\n    }\n\n    /**\n     * @dev Returns true if the caller is the current owner.\n     */\n    function isOwner() public view returns (bool) {\n        return _msgSender() == _owner;\n    }\n\n    /**\n     * @dev Leaves the contract without owner. It will not be possible to call\n     * `onlyOwner` functions anymore. Can only be called by the current owner.\n     *\n     * NOTE: Renouncing ownership will leave the contract without an owner,\n     * thereby removing any functionality that is only available to the owner.\n     */\n    function renounceOwnership() public onlyOwner {\n        emit OwnershipTransferred(_owner, address(0));\n        _owner = address(0);\n    }\n\n    /**\n     * @dev Transfers ownership of the contract to a new account (`newOwner`).\n     * Can only be called by the current owner.\n     */\n    function transferOwnership(address newOwner) public onlyOwner {\n        _transferOwnership(newOwner);\n    }\n\n    /**\n     * @dev Transfers ownership of the contract to a new account (`newOwner`).\n     */\n    function _transferOwnership(address newOwner) internal {\n        require(newOwner != address(0), \"Ownable: new owner is the zero address\");\n        emit OwnershipTransferred(_owner, newOwner);\n        _owner = newOwner;\n    }\n}\n\ninterface IERC20 {\n    /**\n     * @dev Returns the amount of tokens in existence.\n     */\n    function totalSupply() external view returns (uint256);\n\n    /**\n     * @dev Returns the amount of tokens owned by `account`.\n     */\n    function balanceOf(address account) external view returns (uint256);\n\n    /**\n     * @dev Moves `amount` tokens from the caller's account to `recipient`.\n     *\n     * Returns a boolean value indicating whether the operation succeeded.\n     *\n     * Emits a {Transfer} event.\n     */\n    function transfer(address recipient, uint256 amount) external returns (bool);\n\n    /**\n     * @dev Returns the remaining number of tokens that `spender` will be\n     * allowed to spend on behalf of `owner` through {transferFrom}. This is\n     * zero by default.\n     *\n     * This value changes when {approve} or {transferFrom} are called.\n     */\n    function allowance(address owner, address spender) external view returns (uint256);\n\n    /**\n     * @dev Sets `amount` as the allowance of `spender` over the caller's tokens.\n     *\n     * Returns a boolean value indicating whether the operation succeeded.\n     *\n     * IMPORTANT: Beware that changing an allowance with this method brings the risk\n     * that someone may use both the old and the new allowance by unfortunate\n     * transaction ordering. One possible solution to mitigate this race\n     * condition is to first reduce the spender's allowance to 0 and set the\n     * desired value afterwards:\n     * https://github.com/ethereum/EIPs/issues/20#issuecomment-263524729\n     *\n     * Emits an {Approval} event.\n     */\n    function approve(address spender, uint256 amount) external returns (bool);\n\n    /**\n     * @dev Moves `amount` tokens from `sender` to `recipient` using the\n     * allowance mechanism. `amount` is then deducted from the caller's\n     * allowance.\n     *\n     * Returns a boolean value indicating whether the operation succeeded.\n     *\n     * Emits a {Transfer} event.\n     */\n    function transferFrom(\n        address sender,\n        address recipient,\n        uint256 amount\n    ) external returns (bool);\n\n    /**\n     * @dev Emitted when `value` tokens are moved from one account (`from`) to\n     * another (`to`).\n     *\n     * Note that `value` may be zero.\n     */\n    event Transfer(address indexed from, address indexed to, uint256 value);\n\n    /**\n     * @dev Emitted when the allowance of a `spender` for an `owner` is set by\n     * a call to {approve}. `value` is the new allowance.\n     */\n    event Approval(address indexed owner, address indexed spender, uint256 value);\n}\n\n\n// library for address array \nlibrary AddressArrayLib {\n    using AddressArrayLib for addresses;\n\n    struct addresses {\n        address[] array;\n    }\n\n    function add(addresses storage self, address _address)\n        external\n    {\n        if(! exists(self, _address)){\n            self.array.push(_address);\n        }\n    }\n\n    function getIndexByAddress(\n        addresses storage self,\n        address _address\n    ) internal view returns (uint256, bool) {\n        uint256 index;\n        bool exists_;\n\n        for (uint256 i = 0; i < self.array.length; i++) {\n            if (self.array[i] == _address) {\n                index = i;\n                exists_ = true;\n\n                break;\n            }\n        }\n        return (index, exists_);\n    }\n\n    function remove(\n        addresses storage self,\n        address _address\n    ) internal {\n       for (uint256 i = 0; i < self.array.length; i++) {\n            if (\n                self.array[i] == _address \n            ) {\n                delete self.array[i];\n            }\n        }\n    }\n\n\n    function exists(\n        addresses storage self,\n        address _address\n    ) internal view returns (bool) {\n        for (uint256 i = 0; i < self.array.length; i++) {\n            if (\n                self.array[i] == _address \n            ) {\n                return true;\n            }\n        }\n        return false;\n    }\n}\n\n/**\n * @title Staking contract\n * @author Yogesh Singh\n * @notice This contract will store and manage staking at APY defined by owner\n * @dev Store, calculate, collect and transefer stakes and rewards to end user\n */\ncontract Staking is Ownable{\n\n    // Lib for uints\n    using SafeMath for uint;\n    \n    // Custom lib for managing address[]\n    using AddressArrayLib for AddressArrayLib.addresses;\n\n    // Sec in a year \n    uint private APYTime; // = 365 days (For testing it can be updated to shorter time.)\n\n    // Structure to store StakeHoders details\n    struct  stakeDetails {\n        uint stake; // Total amount staked by the user for perticular pool\n        uint reward; // Total unclaimed reward calculated at lastRewardCalculated \n        uint APY; // APY at which the amount was staked\n        uint lastRewardCalculated; // The time when reward was calculated\n    }\n\n    // Bool for initilizer, used for proxy contract\n    bool private initialized;\n\n    /** mapping to store current status for stakeHolder\n     * Explaination:\n     *  {\n     *      Staker: {\n     *           Pool: staking details\n     *      }\n     *  }\n     */\n    mapping(\n        address => mapping(\n            uint => stakeDetails\n        )\n    ) public stakeHolders;\n\n    /** Store all the stakeholders\n     * {\n     *   PoolId: stakeholdres' list\n     * }\n     */\n    mapping(uint => AddressArrayLib.addresses) stakers;\n\n    // Events\n    event Staked(\n        address indexed staker,\n        uint amount,\n        uint indexed _poolId,\n        uint timestamp\n    );\n    event Unstaked(\n        address indexed staker,\n        uint amount,\n        uint indexed _poolId,\n        uint timestamp\n    );\n    event RewardClaimed(\n        address indexed staker,\n        uint amount,\n        uint indexed _poolId,\n        uint timestamp\n    );\n\n    // Structure to store the pool's information\n    struct stakingPool {\n        address token; // Address of staking token\n        address reward; // Address of reward token\n        uint APY; // APY for this perticular pool\n        uint tvl; // Total value currently locked in this pool\n        uint totalAllotedReward; // Total award transfered to this contract by admin for reward.\n        uint totalClaimedReward; // Total reward claimed in this pool\n    }\n\n    // List of pools created by admin\n    stakingPool[] public pools; \n\n    /**\n     * @dev Modifier to check if pool exists\n     * @param _poolId Pools's ID\n     */\n    modifier poolExists(uint _poolId) {\n        require(_poolId < pools.length, \"Staking: Pool doesn't exists\");\n        _;\n    }\n\n    /**\n     * @dev This function will create new pool, access type is onlyOwner\n     * @notice This Function will create new pool with the token address,\\\n       reward address and the APY percentage.\n     * @param _token Staking token address for this pool. \n     * @param _reward Staking reward token address for this pool\n     * @param _APY APY percentage * 1000 for this pool.\n     */\n    function addPool(address _token, address _reward, uint _APY) public onlyOwner{\n        // Check if pool already exists\n        for (uint i=0; i<pools.length; i++){\n            if( pools[i].token == _token && pools[i].reward == _reward){\n                revert(\"Pool already exists\");\n            }\n        }\n\n        // Add pool to contract\n        pools.push(stakingPool(_token, _reward, _APY, 0, 0, 0));\n    }\n\n    /**\n     * @dev This funtion will return the length of pools\\\n        which will be used to loop and get pool details.\n     * @notice Get the length of pools and use it to loop for index.\n     * @return Length of pool.\n     */\n    function poolLength() public view returns(uint){\n        return pools.length;\n    }\n\n    /**\n     * @dev This function allows owner to update APY for specific pool.\n     * @notice Let's you update the APY for this pool if you're current owner.\n     * @param _poolId pool's Id in which you want to update the APY.\n     * @param _APY New APY percentage * 1000.\n     */\n    function updateAPY(uint _poolId, uint _APY) public onlyOwner poolExists(_poolId){\n        pools[_poolId].APY = _APY;\n    }\n\n    /**\n     * @dev This funciton allows owner to add more reward amount to  this contract.\n     * @notice Let's you allot more reward fund in this contract.\n     * @param _poolId pool's Id in which you want to add this reward.\n     * @param amount amount to be transfered from owner's wallet to this contract.\n     */\n    function addRewardToPool(uint _poolId, uint amount) public onlyOwner poolExists(_poolId){\n        // Reward contract object.\n        IERC20 rewardToken = IERC20(pools[_poolId].reward);\n        \n        // Check if amount is allowed to spend the token\n        require(rewardToken.allowance(msg.sender, address(this)) >= amount, \"Staking: Must allow Spending\");\n        \n        // Transfer the token to contract\n        rewardToken.transferFrom(msg.sender, address(this), amount);\n\n        // Update the pool's stats\n        pools[_poolId].totalAllotedReward += amount;\n    }\n\n    /**\n     * @notice This method will be called once only by proxy contract to init.\n     */\n    function init() public{\n        require(!initialized, \"Already initilized.\");\n        initOwner();\n        APYTime = 365 days;\n        initialized = true;\n    }\n\n    /**\n     * @dev This function is used to calculate current reward for stakeHolder\n     * @param _poolId The pool for which we want to calculate reward.\n     * @param _stakeHolder The address of stakeHolder to calculate reward till current block\n     * @return reward calculated till current block\n     */\n    function _calculateReward(uint _poolId, address _stakeHolder) internal view returns(uint reward){\n        stakeDetails memory stakeDetail = stakeHolders[_stakeHolder][_poolId];\n        \n        \n        if (stakeDetail.stake > 0){\n            // Without safemath formula for explanation\n            // reward = (\n            //     (stakeDetail.stake * stakeDetails.APY * (block.timestamp - stakeDetail.lastRewardCalculated)) /\n            //     (APYTime * 100 * 1000)\n            // );\n    \n            reward = stakeDetail.stake.mul(stakeDetail.APY).mul(\n                block.timestamp.sub(stakeDetail.lastRewardCalculated)\n            ).div(\n                APYTime.mul(100).mul(1000)\n            );\n        }\n        else{\n            reward = 0;\n        }\n    }\n\n    /**\n     * @dev This function is used to calculate Total reward for stakeHolder for pool\n     * @param _poolId The pool for which we want to calculate reward.\n     * @param _stakeHolder The address of stakeHolder to calculate Total reward \n     * @return reward total reward \n     */\n    function calculateReward(uint _poolId, address _stakeHolder) public view returns(uint reward){\n        stakeDetails memory stakeDetail = stakeHolders[_stakeHolder][_poolId];\n        reward = stakeDetail.reward + _calculateReward(_poolId, _stakeHolder);\n    }\n\n    /**\n     * @dev Allows user to stake the amount the pool. Calculate the old reward\\\n       and updates the reward, staked amount and current APY.\n     * @notice This function will update your staked amount.\n     * @param _poolId The pool in which user wants to stake.\n     * @param amount The amount user wants to add into his stake.\n     */\n    function stake(uint _poolId, uint amount) public poolExists(_poolId){ \n\n        IERC20 token = IERC20(pools[_poolId].token);\n\n        // Check if amount is allowed to spend the token\n        require(token.allowance(msg.sender, address(this)) >= amount, \"Staking: Must allow Spending\");\n        \n        // Transfer the token to contract\n        token.transferFrom(msg.sender, address(this), amount);\n\n        // Calculate the last reward\n        uint uncalculatedReward = _calculateReward(_poolId, msg.sender);\n\n        // Update the stake details\n        stakeHolders[msg.sender][_poolId].stake += amount;\n        stakeHolders[msg.sender][_poolId].reward += uncalculatedReward;\n        stakeHolders[msg.sender][_poolId].lastRewardCalculated = block.timestamp;\n        stakeHolders[msg.sender][_poolId].APY = pools[_poolId].APY;\n        \n        // Update TVL\n        pools[_poolId].tvl += amount;\n\n        // Add into the array\n        stakers[_poolId].add(msg.sender);\n        emit Staked(msg.sender, amount, _poolId, block.timestamp);\n    }\n\n    /**\n     * @dev Calculate the current reward, add with previous reward, Transefer\n     * it to sender and update reward to 0\n     * @param _poolId Pool from which user want to claim the reward.\n     * @notice This function will transfer the reward earned till now.\n     */\n    function claimReward(uint _poolId) public poolExists(_poolId){\n        // Calculate the last reward\n        uint uncalculatedReward = _calculateReward(_poolId, msg.sender);\n\n        // Check for the allowance and transfer from the owners account\n        require(\n            pools[_poolId].totalAllotedReward > stakeHolders[msg.sender][_poolId].reward + uncalculatedReward,\n            \"Staking: Insufficient reward allowance from the Admin\"\n        );\n\n        // Transfer the reward.\n        IERC20 token = IERC20(pools[_poolId].token);\n        token.transfer(msg.sender, stakeHolders[msg.sender][_poolId].reward + uncalculatedReward);\n\n        // Update pools stats\n        pools[_poolId].totalAllotedReward -= (stakeHolders[msg.sender][_poolId].reward + uncalculatedReward);\n        pools[_poolId].totalClaimedReward += (stakeHolders[msg.sender][_poolId].reward + uncalculatedReward);\n\n        // Update the stake details\n        stakeHolders[msg.sender][_poolId].reward = 0;\n        stakeHolders[msg.sender][_poolId].lastRewardCalculated = block.timestamp;\n\n        // Remove if user don't have any reward or stake amount left.\n        if (\n            stakeHolders[msg.sender][_poolId].stake == 0 \n            && \n            stakeHolders[msg.sender][_poolId].reward == 0\n        ){\n            stakers[_poolId].remove(msg.sender);\n        }\n\n        // Trigger the event\n        emit RewardClaimed(msg.sender, stakeHolders[msg.sender][_poolId].reward + uncalculatedReward, _poolId, block.timestamp);\n    }\n\n    /**\n     * @dev Sum the unstakable amount delete and transfer the request to _stakeHolder\n     * @notice This function will transfer the unstable amount to your wallet\n     * @param _poolId The pool in which user wants to unstake.\n     * @param amount The amount user wants to add into his stake\n     */\n    function unstake(uint _poolId, uint amount) public poolExists(_poolId){\n        \n        // Check if user have sufficient amount staked.\n        require(\n            stakeHolders[msg.sender][_poolId].stake >= amount, \n            \"Staking: You don't have enough unstakeble amount\"\n        );\n\n        // Calculate the last reward\n        uint uncalculatedReward = _calculateReward(_poolId, msg.sender);\n\n        // Update the stake details\n        stakeHolders[msg.sender][_poolId].stake -= amount;\n        stakeHolders[msg.sender][_poolId].reward += uncalculatedReward;\n        stakeHolders[msg.sender][_poolId].lastRewardCalculated = block.timestamp;\n        \n        // Update TVL\n        pools[_poolId].tvl -= amount;\n\n        // Remove if user don't have any reward or stake amount left.\n        if (\n            stakeHolders[msg.sender][_poolId].stake == 0 \n            && \n            stakeHolders[msg.sender][_poolId].reward == 0\n        ){\n            stakers[_poolId].remove(msg.sender);\n        }\n        \n        // Send the unstaked amout to stakeHolder\n        IERC20 token = IERC20(pools[_poolId].token);\n        token.transfer(msg.sender, amount);\n\n        // Emit unstaked event\n        emit Unstaked(msg.sender, amount, _poolId, block.timestamp);\n    }\n\n    /**\n     * @dev Returns array of stakeholder\n     * @notice This function will give list of stakers who have staked any amount.\n     * @param _poolId The pool for which you want to get list of stakeHolders.\n     * @return stakers.array the list os stakeholders\n     */\n    function getStakers(uint _poolId) public view returns(address[] memory) {   \n        return stakers[_poolId].array;\n    }\n\n    /** \n     * @dev Calculate and return total undelivered rewards till now.\n     * @notice This function will give you total of unclaimed rewards till now.\n     * @param _poolId The pool for which you want to calculate total reward.\n     * @return _totalReward Total unclaimed reward till now.\n     */\n    function totalReward(uint _poolId) public view returns (uint _totalReward) {\n        uint sum = 0;\n        for (uint i=0; i<stakers[_poolId].array.length; i++){\n            sum += stakeHolders[stakers[_poolId].array[i]][_poolId].reward;\n            sum += _calculateReward(_poolId, stakers[_poolId].array[i]);\n        }\n        _totalReward = sum;\n    }\n\n    /**\n     * @dev Function to check if contract have suffecient reward allowance or not\n     * @notice This function will return if it has sufficient fund for paying the reward\n     * @param _poolId The pool for which you want to check reward availibility\n     * @return True if have sufficient allowance for paying all the rewards\n     */\n    function haveSuffecientFundsForReward(uint _poolId) public view returns(bool) {\n        return pools[_poolId].totalAllotedReward >= totalReward(_poolId);\n    }\n\n}",
  "sourcePath": "/Users/thoughtwin/Desktop/weblisto/clubrare_staking_apy/contracts/Staking.sol",
  "compiler": {
    "name": "solc",
    "version": "0.5.6+commit.b259423e.Emscripten.clang"
  },
  "schemaVersion": "3.4.4",
  "updatedAt": "2021-12-20T13:09:27.602Z",
  "devdoc": {
    "author": "Yogesh Singh",
    "details": "Store, calculate, collect and transefer stakes and rewards to end user",
    "methods": {
      "addPool(address,address,uint256)": {
        "details": "This function will create new pool, access type is onlyOwner",
        "params": {
          "_APY": "APY percentage * 1000 for this pool.",
          "_reward": "Staking reward token address for this pool",
          "_token": "Staking token address for this pool. "
        }
      },
      "addRewardToPool(uint256,uint256)": {
        "details": "This funciton allows owner to add more reward amount to  this contract.",
        "params": {
          "_poolId": "pool's Id in which you want to add this reward.",
          "amount": "amount to be transfered from owner's wallet to this contract."
        }
      },
      "calculateReward(uint256,address)": {
        "details": "This function is used to calculate Total reward for stakeHolder for pool",
        "params": {
          "_poolId": "The pool for which we want to calculate reward.",
          "_stakeHolder": "The address of stakeHolder to calculate Total reward "
        },
        "return": "reward total reward "
      },
      "claimReward(uint256)": {
        "details": "Calculate the current reward, add with previous reward, Transefer it to sender and update reward to 0",
        "params": {
          "_poolId": "Pool from which user want to claim the reward."
        }
      },
      "getStakers(uint256)": {
        "details": "Returns array of stakeholder",
        "params": {
          "_poolId": "The pool for which you want to get list of stakeHolders."
        },
        "return": "stakers.array the list os stakeholders"
      },
      "haveSuffecientFundsForReward(uint256)": {
        "details": "Function to check if contract have suffecient reward allowance or not",
        "params": {
          "_poolId": "The pool for which you want to check reward availibility"
        },
        "return": "True if have sufficient allowance for paying all the rewards"
      },
      "isOwner()": {
        "details": "Returns true if the caller is the current owner."
      },
      "owner()": {
        "details": "Returns the address of the current owner."
      },
      "poolLength()": {
        "details": "This funtion will return the length of pools\\ which will be used to loop and get pool details.",
        "return": "Length of pool."
      },
      "renounceOwnership()": {
        "details": "Leaves the contract without owner. It will not be possible to call `onlyOwner` functions anymore. Can only be called by the current owner.     * NOTE: Renouncing ownership will leave the contract without an owner, thereby removing any functionality that is only available to the owner."
      },
      "stake(uint256,uint256)": {
        "details": "Allows user to stake the amount the pool. Calculate the old reward\\ and updates the reward, staked amount and current APY.",
        "params": {
          "_poolId": "The pool in which user wants to stake.",
          "amount": "The amount user wants to add into his stake."
        }
      },
      "totalReward(uint256)": {
        "details": "Calculate and return total undelivered rewards till now.",
        "params": {
          "_poolId": "The pool for which you want to calculate total reward."
        },
        "return": "_totalReward Total unclaimed reward till now."
      },
      "transferOwnership(address)": {
        "details": "Transfers ownership of the contract to a new account (`newOwner`). Can only be called by the current owner."
      },
      "unstake(uint256,uint256)": {
        "details": "Sum the unstakable amount delete and transfer the request to _stakeHolder",
        "params": {
          "_poolId": "The pool in which user wants to unstake.",
          "amount": "The amount user wants to add into his stake"
        }
      },
      "updateAPY(uint256,uint256)": {
        "details": "This function allows owner to update APY for specific pool.",
        "params": {
          "_APY": "New APY percentage * 1000.",
          "_poolId": "pool's Id in which you want to update the APY."
        }
      }
    },
    "title": "Staking contract"
  },
  "userdoc": {
    "methods": {
      "addPool(address,address,uint256)": {
        "notice": "This Function will create new pool with the token address,\\ reward address and the APY percentage."
      },
      "addRewardToPool(uint256,uint256)": {
        "notice": "Let's you allot more reward fund in this contract."
      },
      "claimReward(uint256)": {
        "notice": "This function will transfer the reward earned till now."
      },
      "getStakers(uint256)": {
        "notice": "This function will give list of stakers who have staked any amount."
      },
      "haveSuffecientFundsForReward(uint256)": {
        "notice": "This function will return if it has sufficient fund for paying the reward"
      },
      "init()": {
        "notice": "This method will be called once only by proxy contract to init."
      },
      "poolLength()": {
        "notice": "Get the length of pools and use it to loop for index."
      },
      "stake(uint256,uint256)": {
        "notice": "This function will update your staked amount."
      },
      "totalReward(uint256)": {
        "notice": "This function will give you total of unclaimed rewards till now."
      },
      "unstake(uint256,uint256)": {
        "notice": "This function will transfer the unstable amount to your wallet"
      },
      "updateAPY(uint256,uint256)": {
        "notice": "Let's you update the APY for this pool if you're current owner."
      }
    },
    "notice": "This contract will store and manage staking at APY defined by owner"
  }
}